:100000000C9434000C9451000C9451000C946A0030
:100010000C9451000C9451000C9451000C9451001C
:100020000C9451000C9451000C9451000C9451000C
:100030000C9451000C9453000C9451000C945100FA
:100040000C9451000C9451000C944A010C945100F2
:100050000C9451000C9451000C9451000C945100DC
:100060000C9451000C94510011241FBECFEFD8E026
:10007000DEBFCDBF11E0A0E0B1E0ECE7F6E002C0EA
:1000800005900D92AA34B107D9F721E0AAE4B1E0B6
:1000900001C01D92A939B207E1F70E9484000C94B7
:1000A0003C030C9400001F920F920FB60F92112484
:1000B0008F939F9380914B0190914C010196909367
:1000C0004C0180934B019F918F910F900FBE0F9029
:1000D0001F9018951F920F920FB60F9211248F93B5
:1000E0009F9381E090E090934F0180934E018FE3C6
:1000F0009CE90197F1F700C000009F918F910F904C
:100100000FBE0F901F90189510924F0110924E0144
:1001100060E072EC81E090E00E947E012FEF81EEC2
:1001200094E0215080409040E1F700C0000088E05A
:1001300091E00E94BB012FEF81EE94E021508040BE
:100140009040E1F700C0000085E191E00E94BB0112
:100150002FEF81EE94E0215080409040E1F700C005
:10016000000060E875E280E090E00E947E012FEFE1
:1001700081EE94E0215080409040E1F700C0000003
:1001800088E091E00E94BB012FEF81EE94E02150C6
:1001900080409040E1F700C0000080E291E00E94C2
:1001A000BB012FEF81EE94E0215080409040E1F7B9
:1001B00000C0000010928000E1E8F0E01082808131
:1001C00081608083EFE6F0E08081108210928500EC
:1001D00010928400E8E6F0E0808187608083EBE69F
:1001E000F0E0808182608083789488E290E00E94D1
:1001F0001202EC0111E00E94CE0186E0EEE2F1E095
:10020000DE0101900D928A95E1F7CE010E94BB01BB
:100210008FE39CE90197F1F700C0000064E371E00F
:10022000CE010E943303892B49F1188210924D01AF
:1002300089E391E00E94BB01EFE6F0E080818160FC
:100240008083109285001092840010924C011092CD
:100250004B01C4E8D0E00F2EF0E8CF2EFEE3DF2EF6
:10026000E12CF12CF02D6881798180E090E0A701EC
:1002700096010E94F30120934A01F5CF8091060177
:1002800090910701892B21F4188210934D01B3CF6F
:100290001882B1CF1F920F920FB60F9211242F9395
:1002A0008F939F93EF93FF938091C600E09152014B
:1002B000F09153018083809194018F5F809394012A
:1002C0008091520190915301019621E08439920767
:1002D00028F4909353018093520106C084E591E085
:1002E0009093530180935201FF91EF919F918F91D1
:1002F0002F910F900FBE0F901F901895DC01CB012E
:10030000880F991FAA1FBB1F880F991FAA1FBB1F09
:100310009C01AD01220F331F441F551F220F331FB5
:10032000441F551F60E074E284EF90E00E94D10109
:10033000215031093093C5002093C40088E1809397
:10034000C1008EE08093C20084E591E0909351015A
:100350008093500190935301809352011092940125
:1003600080E00895E0ECF0E0908195FFFDCF809370
:10037000C60080E00895CF93DF93EC0188818A3036
:1003800031F021960E94B20189918A30D9F78AE032
:100390000E94B20180E0DF91CF9108958091940195
:1003A0000895A1E21A2EAA1BBB1BFD010DC0AA1FB6
:1003B000BB1FEE1FFF1FA217B307E407F50720F0CE
:1003C000A21BB30BE40BF50B661F771F881F991F49
:1003D0001A9469F760957095809590959B01AC0192
:1003E000BD01CF010895052E97FB1EF400940E94D5
:1003F0000A0257FD07D00E94D10107FC03D04EF43A
:100400000C940A0250954095309521953F4F4F4FDF
:100410005F4F089590958095709561957F4F8F4FB0
:100420009F4F08950F931F93CF93DF9382309105D1
:1004300010F482E090E0E0919701F091980120E0C3
:1004400030E0A0E0B0E0309719F1408151810281A5
:10045000138148175907C8F08417950769F4109756
:1004600031F012960C93129713961C9327C00093A9
:1004700097011093980122C02115310519F04217F8
:10048000530718F49A01BD01EF01DF01F801DBCF3A
:1004900021153105F9F0281B390B2430310580F482
:1004A0008A819B816115710521F0FB019383828311
:1004B00004C09093980180939701FE01329644C046
:1004C000FE01E20FF31F819391932250310939838A
:1004D00028833AC02091950130919601232B41F455
:1004E00020910201309103013093960120939501F0
:1004F00020910001309101012115310541F42DB702
:100500003EB74091040150910501241B350BE09149
:100510009501F0919601E217F307A0F42E1B3F0B13
:100520002817390778F0AC014E5F5F4F2417350765
:1005300048F04E0F5F1F50939601409395018193B1
:10054000919302C0E0E0F0E0CF01DF91CF911F91E5
:100550000F910895CF93DF93009709F481C0FC01B8
:10056000329713821282A0919701B091980110974F
:1005700081F420813181820F931F20919501309168
:1005800096012817390751F5F0939601E0939501EC
:1005900067C0ED0120E030E0CE17DF0740F44A816C
:1005A0005B819E0141155105F1F0EA01F5CFD3833E
:1005B000C28340815181840F951FC817D90759F410
:1005C00088819981840F951F0296918380838A8107
:1005D0009B81938382832115310529F4F09398013F
:1005E000E09397013DC0E901FB83EA83499159916A
:1005F000C40FD51FEC17FD0761F480819181840F32
:10060000951F0296E90199838883828193819B8358
:100610008A83E0E0F0E012968D919C911397009709
:1006200019F0FD01DC01F7CF8D919C9111979D018F
:100630002E5F3F4F820F931F2091950130919601BD
:100640002817390769F4309729F41092980110920D
:10065000970102C013821282B0939601A093950174
:10066000DF91CF910895FB01DC018D9101908019FC
:0C0670000110D9F3990B0895F894FFCF06
:10067C00000099012000FFFF41542B444546415591
:10068C004C540D0A0041542B42415544340D0A0080
:10069C0041542B5354415254454E310D0A0052458E
:1006AC0041430A0052454143005265616320436F48
:0A06BC006E6669726D65640D0A0038
:00000001FF
